{
  "contractName": "InvoiceFactory",
  "abi": [
    {
      "constant": true,
      "inputs": [
        {
          "name": "",
          "type": "address"
        },
        {
          "name": "",
          "type": "uint256"
        }
      ],
      "name": "userInvoices",
      "outputs": [
        {
          "name": "",
          "type": "address"
        }
      ],
      "payable": false,
      "stateMutability": "view",
      "type": "function"
    },
    {
      "constant": true,
      "inputs": [],
      "name": "invoice_sweeper",
      "outputs": [
        {
          "name": "",
          "type": "address"
        }
      ],
      "payable": false,
      "stateMutability": "view",
      "type": "function"
    },
    {
      "constant": true,
      "inputs": [
        {
          "name": "",
          "type": "uint256"
        }
      ],
      "name": "invoices",
      "outputs": [
        {
          "name": "",
          "type": "address"
        }
      ],
      "payable": false,
      "stateMutability": "view",
      "type": "function"
    },
    {
      "inputs": [],
      "payable": false,
      "stateMutability": "nonpayable",
      "type": "constructor"
    },
    {
      "anonymous": false,
      "inputs": [
        {
          "indexed": false,
          "name": "invoice",
          "type": "address"
        },
        {
          "indexed": false,
          "name": "time",
          "type": "uint256"
        }
      ],
      "name": "InvoiceDeployed",
      "type": "event"
    },
    {
      "constant": false,
      "inputs": [
        {
          "name": "amount",
          "type": "uint256"
        }
      ],
      "name": "make",
      "outputs": [
        {
          "name": "",
          "type": "address"
        }
      ],
      "payable": true,
      "stateMutability": "payable",
      "type": "function"
    }
  ],
  "bytecode": "0x6060604052341561000f57600080fd5b33600260006101000a81548173ffffffffffffffffffffffffffffffffffffffff021916908373ffffffffffffffffffffffffffffffffffffffff160217905550610f3c8061005f6000396000f300606060405260043610610062576000357c0100000000000000000000000000000000000000000000000000000000900463ffffffff1680630ad6b0a514610067578063473e984e146100e95780634e6d14051461013e578063516517ab146101a1575b600080fd5b341561007257600080fd5b6100a7600480803573ffffffffffffffffffffffffffffffffffffffff169060200190919080359060200190919050506101f9565b604051808273ffffffffffffffffffffffffffffffffffffffff1673ffffffffffffffffffffffffffffffffffffffff16815260200191505060405180910390f35b34156100f457600080fd5b6100fc610247565b604051808273ffffffffffffffffffffffffffffffffffffffff1673ffffffffffffffffffffffffffffffffffffffff16815260200191505060405180910390f35b341561014957600080fd5b61015f600480803590602001909190505061026d565b604051808273ffffffffffffffffffffffffffffffffffffffff1673ffffffffffffffffffffffffffffffffffffffff16815260200191505060405180910390f35b6101b760048080359060200190919050506102ac565b604051808273ffffffffffffffffffffffffffffffffffffffff1673ffffffffffffffffffffffffffffffffffffffff16815260200191505060405180910390f35b60016020528160005260406000208181548110151561021457fe5b90600052602060002090016000915091509054906101000a900473ffffffffffffffffffffffffffffffffffffffff1681565b600260009054906101000a900473ffffffffffffffffffffffffffffffffffffffff1681565b60008181548110151561027c57fe5b90600052602060002090016000915054906101000a900473ffffffffffffffffffffffffffffffffffffffff1681565b60008082600260009054906101000a900473ffffffffffffffffffffffffffffffffffffffff166102db6104ed565b808381526020018273ffffffffffffffffffffffffffffffffffffffff1673ffffffffffffffffffffffffffffffffffffffff16815260200192505050604051809103906000f080151561032e57600080fd5b90507f093a923585c72d39c5a4f59065bb9d0d20a5b2686eaaf212b37d6ad07718ac988142604051808373ffffffffffffffffffffffffffffffffffffffff1673ffffffffffffffffffffffffffffffffffffffff1681526020018281526020019250505060405180910390a160003411156103e1578073ffffffffffffffffffffffffffffffffffffffff1634616d6090604051600060405180830381858888f1935050505015156103e057600080fd5b5b600160003373ffffffffffffffffffffffffffffffffffffffff1673ffffffffffffffffffffffffffffffffffffffff168152602001908152602001600020805480600101828161043291906104fd565b9160005260206000209001600083909190916101000a81548173ffffffffffffffffffffffffffffffffffffffff021916908373ffffffffffffffffffffffffffffffffffffffff160217905550506000805480600101828161049591906104fd565b9160005260206000209001600083909190916101000a81548173ffffffffffffffffffffffffffffffffffffffff021916908373ffffffffffffffffffffffffffffffffffffffff1602179055505080915050919050565b6040516109c28061054f83390190565b815481835581811511610524578183600052602060002091820191016105239190610529565b5b505050565b61054b91905b8082111561054757600081600090555060010161052f565b5090565b90560060606040526040516040806109c2833981016040528080519060200190919080519060200190919050506103844201600181905550816000819055506000600260016101000a81548160ff0219169083151502179055506000600260006101000a81548160ff021916908315150217905550806002806101000a81548173ffffffffffffffffffffffffffffffffffffffff021916908373ffffffffffffffffffffffffffffffffffffffff16021790555033600360006101000a81548173ffffffffffffffffffffffffffffffffffffffff021916908373ffffffffffffffffffffffffffffffffffffffff16021790555050506108bf806101036000396000f3006060604052600436106100af576000357c0100000000000000000000000000000000000000000000000000000000900463ffffffff16806302d05d3f146100b9578063295b4e171461010e57806335faa4161461013b5780634f8632ba14610150578063590e1ae3146101a557806371ed4664146101ba5780638ba6113a146101f3578063b81230f314610220578063cbbf728014610249578063cf5e315d14610282578063e002bbf3146102ab575b6100b76102c0565b005b34156100c457600080fd5b6100cc6103cb565b604051808273ffffffffffffffffffffffffffffffffffffffff1673ffffffffffffffffffffffffffffffffffffffff16815260200191505060405180910390f35b341561011957600080fd5b6101216103f0565b604051808215151515815260200191505060405180910390f35b341561014657600080fd5b61014e610403565b005b341561015b57600080fd5b6101636104a5565b604051808273ffffffffffffffffffffffffffffffffffffffff1673ffffffffffffffffffffffffffffffffffffffff16815260200191505060405180910390f35b34156101b057600080fd5b6101b86104cb565b005b34156101c557600080fd5b6101f1600480803573ffffffffffffffffffffffffffffffffffffffff16906020019091905050610570565b005b34156101fe57600080fd5b6102066106bb565b604051808215151515815260200191505060405180910390f35b341561022b57600080fd5b6102336106ce565b6040518082815260200191505060405180910390f35b341561025457600080fd5b610280600480803573ffffffffffffffffffffffffffffffffffffffff169060200190919050506106d4565b005b341561028d57600080fd5b610295610815565b6040518082815260200191505060405180910390f35b34156102b657600080fd5b6102be61081b565b005b6000600154421015156102d257600080fd5b600054341415156102e257600080fd5b60001515600260009054906101000a900460ff16151514151561030457600080fd5b600260019054906101000a900460ff1615151561032057600080fd5b6001600260016101000a81548160ff0219169083151502179055503073ffffffffffffffffffffffffffffffffffffffff163190507f4f2d18324ee95128de091ed2adc501295479000ce4c2cec607aeb1b67e189e2f813342604051808481526020018373ffffffffffffffffffffffffffffffffffffffff1673ffffffffffffffffffffffffffffffffffffffff168152602001828152602001935050505060405180910390a150565b6002809054906101000a900473ffffffffffffffffffffffffffffffffffffffff1681565b600260019054906101000a900460ff1681565b600260019054906101000a900460ff16151561041e57600080fd5b6002809054906101000a900473ffffffffffffffffffffffffffffffffffffffff1673ffffffffffffffffffffffffffffffffffffffff163373ffffffffffffffffffffffffffffffffffffffff1614151561047957600080fd5b6104a36002809054906101000a900473ffffffffffffffffffffffffffffffffffffffff166106d4565b565b600360009054906101000a900473ffffffffffffffffffffffffffffffffffffffff1681565b600360009054906101000a900473ffffffffffffffffffffffffffffffffffffffff1673ffffffffffffffffffffffffffffffffffffffff163373ffffffffffffffffffffffffffffffffffffffff1614151561052757600080fd5b600260019054906101000a900460ff1615151561054357600080fd5b61056e600360009054906101000a900473ffffffffffffffffffffffffffffffffffffffff16610570565b565b6000600360009054906101000a900473ffffffffffffffffffffffffffffffffffffffff1673ffffffffffffffffffffffffffffffffffffffff163373ffffffffffffffffffffffffffffffffffffffff161415156105ce57600080fd5b600260019054906101000a900460ff161515156105ea57600080fd5b3073ffffffffffffffffffffffffffffffffffffffff163190508173ffffffffffffffffffffffffffffffffffffffff166108fc829081150290604051600060405180830381858888f19350505050151561064457600080fd5b7f7ca5472b7ea78c2c0141c5a12ee6d170cf4ce8ed06be3d22c8252ddfc7a6a2c4818342604051808481526020018373ffffffffffffffffffffffffffffffffffffffff1673ffffffffffffffffffffffffffffffffffffffff168152602001828152602001935050505060405180910390a15050565b600260009054906101000a900460ff1681565b60005481565b6000600260019054906101000a900460ff1615156106f157600080fd5b6002809054906101000a900473ffffffffffffffffffffffffffffffffffffffff1673ffffffffffffffffffffffffffffffffffffffff163373ffffffffffffffffffffffffffffffffffffffff1614151561074c57600080fd5b3073ffffffffffffffffffffffffffffffffffffffff163190508173ffffffffffffffffffffffffffffffffffffffff166108fc829081150290604051600060405180830381858888f1935050505015156107a657600080fd5b7f2f97320f382170e685cff60facd0e46c6a380e61fe071f595328a379140566f18183604051808381526020018273ffffffffffffffffffffffffffffffffffffffff1673ffffffffffffffffffffffffffffffffffffffff1681526020019250505060405180910390a15050565b60015481565b6002809054906101000a900473ffffffffffffffffffffffffffffffffffffffff1673ffffffffffffffffffffffffffffffffffffffff163373ffffffffffffffffffffffffffffffffffffffff1614151561087657600080fd5b6001600260006101000a81548160ff0219169083151502179055505600a165627a7a723058204d9f49324e98537f7a5fc024e6d7b13e4e0f9f24ba2f2d5384259896f754f0d60029a165627a7a72305820ee90ee64e6512157765ba5cfa33e94cce4085b7cc410648cd9d74ed086cfda0f0029",
  "source": "pragma solidity ^0.4.21;\nimport \"./Invoice.sol\";\n\ncontract InvoiceFactory {\n  address[] public invoices;\n  mapping(address => address[]) public userInvoices;\n  address public invoice_sweeper;\n\n  event InvoiceDeployed(address invoice, uint time);\n  function InvoiceFactory() public {\n    invoice_sweeper = msg.sender;\n  }\n\n  function make(uint amount) public payable returns(address) {\n    address invoice = new Invoice(amount, invoice_sweeper);\n    emit InvoiceDeployed(invoice, now);\n    if(msg.value > 0 ){\n      require(invoice.call.value(msg.value).gas(28000)());\n    }\n    userInvoices[msg.sender].push(invoice);\n    invoices.push(invoice);\n\n    return invoice;\n  }\n}\n\n",
  "sourcePath": "/Users/micah/dev/ethinvoice/src/blockchain/InvoiceContract/contracts/InvoiceFactory.sol",
  "compiler": {
    "name": "solc",
    "version": "0.4.21+commit.dfe3193c.Emscripten.clang"
  },
  "schemaVersion": "2.0.0",
  "updatedAt": "2018-04-28T03:04:27.655Z"
}