{
  "contractName": "Invoice",
  "abi": [
    {
      "constant": true,
      "inputs": [],
      "name": "creator",
      "outputs": [
        {
          "name": "",
          "type": "address"
        }
      ],
      "payable": false,
      "stateMutability": "view",
      "type": "function"
    },
    {
      "constant": true,
      "inputs": [],
      "name": "paid",
      "outputs": [
        {
          "name": "",
          "type": "bool"
        }
      ],
      "payable": false,
      "stateMutability": "view",
      "type": "function"
    },
    {
      "constant": true,
      "inputs": [],
      "name": "user",
      "outputs": [
        {
          "name": "",
          "type": "address"
        }
      ],
      "payable": false,
      "stateMutability": "view",
      "type": "function"
    },
    {
      "constant": true,
      "inputs": [],
      "name": "exceptionState",
      "outputs": [
        {
          "name": "",
          "type": "bool"
        }
      ],
      "payable": false,
      "stateMutability": "view",
      "type": "function"
    },
    {
      "constant": true,
      "inputs": [],
      "name": "invoiceWei",
      "outputs": [
        {
          "name": "",
          "type": "uint256"
        }
      ],
      "payable": false,
      "stateMutability": "view",
      "type": "function"
    },
    {
      "constant": true,
      "inputs": [],
      "name": "paymentDueBy",
      "outputs": [
        {
          "name": "",
          "type": "uint256"
        }
      ],
      "payable": false,
      "stateMutability": "view",
      "type": "function"
    },
    {
      "inputs": [
        {
          "name": "amount",
          "type": "uint256"
        },
        {
          "name": "onBehalfOf",
          "type": "address"
        }
      ],
      "payable": true,
      "stateMutability": "payable",
      "type": "constructor"
    },
    {
      "payable": true,
      "stateMutability": "payable",
      "type": "fallback"
    },
    {
      "anonymous": false,
      "inputs": [
        {
          "indexed": false,
          "name": "amount",
          "type": "uint256"
        },
        {
          "indexed": false,
          "name": "payer",
          "type": "address"
        },
        {
          "indexed": false,
          "name": "time",
          "type": "uint256"
        }
      ],
      "name": "Paid",
      "type": "event"
    },
    {
      "anonymous": false,
      "inputs": [
        {
          "indexed": false,
          "name": "amount",
          "type": "uint256"
        },
        {
          "indexed": false,
          "name": "to",
          "type": "address"
        }
      ],
      "name": "Swept",
      "type": "event"
    },
    {
      "anonymous": false,
      "inputs": [
        {
          "indexed": false,
          "name": "amount",
          "type": "uint256"
        },
        {
          "indexed": false,
          "name": "to",
          "type": "address"
        },
        {
          "indexed": false,
          "name": "time",
          "type": "uint256"
        }
      ],
      "name": "Refunded",
      "type": "event"
    },
    {
      "constant": false,
      "inputs": [],
      "name": "setException",
      "outputs": [],
      "payable": false,
      "stateMutability": "nonpayable",
      "type": "function"
    },
    {
      "constant": false,
      "inputs": [],
      "name": "sweep",
      "outputs": [],
      "payable": false,
      "stateMutability": "nonpayable",
      "type": "function"
    },
    {
      "constant": false,
      "inputs": [
        {
          "name": "to",
          "type": "address"
        }
      ],
      "name": "sweepTo",
      "outputs": [],
      "payable": false,
      "stateMutability": "nonpayable",
      "type": "function"
    },
    {
      "constant": false,
      "inputs": [],
      "name": "refund",
      "outputs": [],
      "payable": false,
      "stateMutability": "nonpayable",
      "type": "function"
    },
    {
      "constant": false,
      "inputs": [
        {
          "name": "to",
          "type": "address"
        }
      ],
      "name": "refundTo",
      "outputs": [],
      "payable": false,
      "stateMutability": "nonpayable",
      "type": "function"
    }
  ],
  "bytecode": "0x60606040526040516040806109c2833981016040528080519060200190919080519060200190919050506103844201600181905550816000819055506000600260016101000a81548160ff0219169083151502179055506000600260006101000a81548160ff021916908315150217905550806002806101000a81548173ffffffffffffffffffffffffffffffffffffffff021916908373ffffffffffffffffffffffffffffffffffffffff16021790555033600360006101000a81548173ffffffffffffffffffffffffffffffffffffffff021916908373ffffffffffffffffffffffffffffffffffffffff16021790555050506108bf806101036000396000f3006060604052600436106100af576000357c0100000000000000000000000000000000000000000000000000000000900463ffffffff16806302d05d3f146100b9578063295b4e171461010e57806335faa4161461013b5780634f8632ba14610150578063590e1ae3146101a557806371ed4664146101ba5780638ba6113a146101f3578063b81230f314610220578063cbbf728014610249578063cf5e315d14610282578063e002bbf3146102ab575b6100b76102c0565b005b34156100c457600080fd5b6100cc6103cb565b604051808273ffffffffffffffffffffffffffffffffffffffff1673ffffffffffffffffffffffffffffffffffffffff16815260200191505060405180910390f35b341561011957600080fd5b6101216103f0565b604051808215151515815260200191505060405180910390f35b341561014657600080fd5b61014e610403565b005b341561015b57600080fd5b6101636104a5565b604051808273ffffffffffffffffffffffffffffffffffffffff1673ffffffffffffffffffffffffffffffffffffffff16815260200191505060405180910390f35b34156101b057600080fd5b6101b86104cb565b005b34156101c557600080fd5b6101f1600480803573ffffffffffffffffffffffffffffffffffffffff16906020019091905050610570565b005b34156101fe57600080fd5b6102066106bb565b604051808215151515815260200191505060405180910390f35b341561022b57600080fd5b6102336106ce565b6040518082815260200191505060405180910390f35b341561025457600080fd5b610280600480803573ffffffffffffffffffffffffffffffffffffffff169060200190919050506106d4565b005b341561028d57600080fd5b610295610815565b6040518082815260200191505060405180910390f35b34156102b657600080fd5b6102be61081b565b005b6000600154421015156102d257600080fd5b600054341415156102e257600080fd5b60001515600260009054906101000a900460ff16151514151561030457600080fd5b600260019054906101000a900460ff1615151561032057600080fd5b6001600260016101000a81548160ff0219169083151502179055503073ffffffffffffffffffffffffffffffffffffffff163190507f4f2d18324ee95128de091ed2adc501295479000ce4c2cec607aeb1b67e189e2f813342604051808481526020018373ffffffffffffffffffffffffffffffffffffffff1673ffffffffffffffffffffffffffffffffffffffff168152602001828152602001935050505060405180910390a150565b6002809054906101000a900473ffffffffffffffffffffffffffffffffffffffff1681565b600260019054906101000a900460ff1681565b600260019054906101000a900460ff16151561041e57600080fd5b6002809054906101000a900473ffffffffffffffffffffffffffffffffffffffff1673ffffffffffffffffffffffffffffffffffffffff163373ffffffffffffffffffffffffffffffffffffffff1614151561047957600080fd5b6104a36002809054906101000a900473ffffffffffffffffffffffffffffffffffffffff166106d4565b565b600360009054906101000a900473ffffffffffffffffffffffffffffffffffffffff1681565b600360009054906101000a900473ffffffffffffffffffffffffffffffffffffffff1673ffffffffffffffffffffffffffffffffffffffff163373ffffffffffffffffffffffffffffffffffffffff1614151561052757600080fd5b600260019054906101000a900460ff1615151561054357600080fd5b61056e600360009054906101000a900473ffffffffffffffffffffffffffffffffffffffff16610570565b565b6000600360009054906101000a900473ffffffffffffffffffffffffffffffffffffffff1673ffffffffffffffffffffffffffffffffffffffff163373ffffffffffffffffffffffffffffffffffffffff161415156105ce57600080fd5b600260019054906101000a900460ff161515156105ea57600080fd5b3073ffffffffffffffffffffffffffffffffffffffff163190508173ffffffffffffffffffffffffffffffffffffffff166108fc829081150290604051600060405180830381858888f19350505050151561064457600080fd5b7f7ca5472b7ea78c2c0141c5a12ee6d170cf4ce8ed06be3d22c8252ddfc7a6a2c4818342604051808481526020018373ffffffffffffffffffffffffffffffffffffffff1673ffffffffffffffffffffffffffffffffffffffff168152602001828152602001935050505060405180910390a15050565b600260009054906101000a900460ff1681565b60005481565b6000600260019054906101000a900460ff1615156106f157600080fd5b6002809054906101000a900473ffffffffffffffffffffffffffffffffffffffff1673ffffffffffffffffffffffffffffffffffffffff163373ffffffffffffffffffffffffffffffffffffffff1614151561074c57600080fd5b3073ffffffffffffffffffffffffffffffffffffffff163190508173ffffffffffffffffffffffffffffffffffffffff166108fc829081150290604051600060405180830381858888f1935050505015156107a657600080fd5b7f2f97320f382170e685cff60facd0e46c6a380e61fe071f595328a379140566f18183604051808381526020018273ffffffffffffffffffffffffffffffffffffffff1673ffffffffffffffffffffffffffffffffffffffff1681526020019250505060405180910390a15050565b60015481565b6002809054906101000a900473ffffffffffffffffffffffffffffffffffffffff1673ffffffffffffffffffffffffffffffffffffffff163373ffffffffffffffffffffffffffffffffffffffff1614151561087657600080fd5b6001600260006101000a81548160ff0219169083151502179055505600a165627a7a723058204d9f49324e98537f7a5fc024e6d7b13e4e0f9f24ba2f2d5384259896f754f0d60029",
  "source": "pragma solidity ^0.4.21;\ncontract Invoice {\n  uint public invoiceWei;\n  uint public paymentDueBy;\n  bool public exceptionState;\n  bool public paid;\n  address public creator;\n  address public user;\n\n\n  event Paid(uint amount, address payer, uint time);\n  event Swept(uint amount, address to);\n  event Refunded(uint amount, address to, uint time);\n\n  function Invoice(uint amount, address onBehalfOf) public payable {\n    paymentDueBy = now + 15 minutes;\n    invoiceWei = amount;\n    paid = false;\n    exceptionState = false;\n    creator = onBehalfOf;\n    user = msg.sender;\n  }\n\n  modifier isValidPayment(){\n    require(now < paymentDueBy);\n    require(msg.value == invoiceWei);\n    require(exceptionState == false);\n    _;\n  }\n\n  modifier isPaid() {\n    require(paid);\n    _;\n  }\n\n  modifier isNotPaid() {\n    require(!paid);\n    _;\n  }\n\n  modifier isCreator() {\n    require(msg.sender == creator);\n    _;\n  }\n\n  modifier isUser() {\n    require(msg.sender == user);\n    _;\n  }\n\n  function pay() isValidPayment isNotPaid private {\n    paid = true;\n    uint amount = address(this).balance;\n    emit Paid(amount, msg.sender, now);\n  }\n\n  // This function is called when the contract is sent ether\n  function () payable public {\n    pay();\n  }\n\n  function setException() isCreator public {\n    exceptionState = true;\n  }\n\n  function sweep() isPaid isCreator public {\n    sweepTo(creator);\n  }\n\n  function sweepTo(address to) isPaid isCreator public {\n    uint amount = address(this).balance;\n    to.transfer(amount);\n    emit Swept(amount, to);\n  }\n\n  function refund() isUser isNotPaid public {\n    refundTo(user);\n  }\n  function refundTo(address to) isUser isNotPaid public {\n    uint amount = address(this).balance;\n    to.transfer(amount);\n    emit Refunded(amount, to, now);\n  }\n}\n",
  "sourcePath": "/Users/micah/dev/ethinvoice/src/blockchain/InvoiceContract/contracts/Invoice.sol",
  "compiler": {
    "name": "solc",
    "version": "0.4.21+commit.dfe3193c.Emscripten.clang"
  },
  "schemaVersion": "2.0.0",
  "updatedAt": "2018-04-28T03:04:27.659Z"
}